{
  "_format": "hh-sol-artifact-1",
  "contractName": "NexusExecutor",
  "sourceName": "contracts/NexusExecutor.sol",
  "abi": [
    {
      "inputs": [],
      "stateMutability": "nonpayable",
      "type": "constructor"
    },
    {
      "anonymous": false,
      "inputs": [
        {
          "indexed": false,
          "internalType": "address",
          "name": "agent",
          "type": "address"
        }
      ],
      "name": "AgentAuthorized",
      "type": "event"
    },
    {
      "anonymous": false,
      "inputs": [
        {
          "indexed": false,
          "internalType": "address",
          "name": "agent",
          "type": "address"
        },
        {
          "indexed": false,
          "internalType": "string",
          "name": "strategyName",
          "type": "string"
        },
        {
          "indexed": false,
          "internalType": "uint256",
          "name": "amount",
          "type": "uint256"
        }
      ],
      "name": "StrategyExecuted",
      "type": "event"
    },
    {
      "inputs": [
        {
          "internalType": "address",
          "name": "_agent",
          "type": "address"
        }
      ],
      "name": "authorizeAgent",
      "outputs": [],
      "stateMutability": "nonpayable",
      "type": "function"
    },
    {
      "inputs": [
        {
          "internalType": "address",
          "name": "",
          "type": "address"
        }
      ],
      "name": "authorizedAgents",
      "outputs": [
        {
          "internalType": "bool",
          "name": "",
          "type": "bool"
        }
      ],
      "stateMutability": "view",
      "type": "function"
    },
    {
      "inputs": [
        {
          "internalType": "string",
          "name": "_strategyName",
          "type": "string"
        },
        {
          "internalType": "uint256",
          "name": "_amount",
          "type": "uint256"
        }
      ],
      "name": "executeStrategy",
      "outputs": [],
      "stateMutability": "nonpayable",
      "type": "function"
    },
    {
      "inputs": [],
      "name": "owner",
      "outputs": [
        {
          "internalType": "address",
          "name": "",
          "type": "address"
        }
      ],
      "stateMutability": "view",
      "type": "function"
    }
  ],
  "bytecode": "0x608060405234801561001057600080fd5b50336000806101000a81548173ffffffffffffffffffffffffffffffffffffffff021916908373ffffffffffffffffffffffffffffffffffffffff1602179055506106b3806100606000396000f3fe608060405234801561001057600080fd5b506004361061004c5760003560e01c80636d88b24d146100515780638da5cb5b1461006d578063cd8e91d21461008b578063efd76065146100a7575b600080fd5b61006b60048036038101906100669190610370565b6100d7565b005b6100756101f6565b60405161008291906103ac565b60405180910390f35b6100a560048036038101906100a09190610462565b61021a565b005b6100c160048036038101906100bc9190610370565b6102e8565b6040516100ce91906104dd565b60405180910390f35b60008054906101000a900473ffffffffffffffffffffffffffffffffffffffff1673ffffffffffffffffffffffffffffffffffffffff163373ffffffffffffffffffffffffffffffffffffffff1614610165576040517f08c379a000000000000000000000000000000000000000000000000000000000815260040161015c90610555565b60405180910390fd5b60018060008373ffffffffffffffffffffffffffffffffffffffff1673ffffffffffffffffffffffffffffffffffffffff16815260200190815260200160002060006101000a81548160ff0219169083151502179055507f26e663c48c070d2d3c2bf6bcf88dc0a1e3ae99c58c36411130bed5924cf95266816040516101eb91906103ac565b60405180910390a150565b60008054906101000a900473ffffffffffffffffffffffffffffffffffffffff1681565b600160003373ffffffffffffffffffffffffffffffffffffffff1673ffffffffffffffffffffffffffffffffffffffff16815260200190815260200160002060009054906101000a900460ff166102a6576040517f08c379a000000000000000000000000000000000000000000000000000000000815260040161029d906105c1565b60405180910390fd5b7f71fa8b9da4ed2ca201dd3b90967ddabe5ef580de3768727c08ac12c02a6a39fe338484846040516102db949392919061063d565b60405180910390a1505050565b60016020528060005260406000206000915054906101000a900460ff1681565b600080fd5b600080fd5b600073ffffffffffffffffffffffffffffffffffffffff82169050919050565b600061033d82610312565b9050919050565b61034d81610332565b811461035857600080fd5b50565b60008135905061036a81610344565b92915050565b60006020828403121561038657610385610308565b5b60006103948482850161035b565b91505092915050565b6103a681610332565b82525050565b60006020820190506103c1600083018461039d565b92915050565b600080fd5b600080fd5b600080fd5b60008083601f8401126103ec576103eb6103c7565b5b8235905067ffffffffffffffff811115610409576104086103cc565b5b602083019150836001820283011115610425576104246103d1565b5b9250929050565b6000819050919050565b61043f8161042c565b811461044a57600080fd5b50565b60008135905061045c81610436565b92915050565b60008060006040848603121561047b5761047a610308565b5b600084013567ffffffffffffffff8111156104995761049861030d565b5b6104a5868287016103d6565b935093505060206104b88682870161044d565b9150509250925092565b60008115159050919050565b6104d7816104c2565b82525050565b60006020820190506104f260008301846104ce565b92915050565b600082825260208201905092915050565b7f4e6f74206f776e65720000000000000000000000000000000000000000000000600082015250565b600061053f6009836104f8565b915061054a82610509565b602082019050919050565b6000602082019050818103600083015261056e81610532565b9050919050565b7f4e6f7420616e20617574686f72697a6564206167656e74000000000000000000600082015250565b60006105ab6017836104f8565b91506105b682610575565b602082019050919050565b600060208201905081810360008301526105da8161059e565b9050919050565b82818337600083830152505050565b6000601f19601f8301169050919050565b600061060d83856104f8565b935061061a8385846105e1565b610623836105f0565b840190509392505050565b6106378161042c565b82525050565b6000606082019050610652600083018761039d565b8181036020830152610665818587610601565b9050610674604083018461062e565b9594505050505056fea2646970667358221220996e25c7b0617a09a6cfb10d67d656da9b83819ecf52907b75a5a81ded552d7664736f6c63430008130033",
  "linkReferences": {},
  "deployedLinkReferences": {}
}